:1000000027C039C038C037C036C035C034C033C04F
:1000100032C031C030C02FC02EC02DC02CC02BC06C
:100020002AC029C028C03F065B4F666D7D077F6FE1
:10003000777C395E79716F74300E763854545C7306
:1000400067506D783E1C1C76665B404802040800D1
:1000500011241FBECFE5D4E0DEBFCDBF10E0A0E687
:10006000B0E0E4E2F4E002C005900D92A237B107DF
:10007000D9F702D0D5C1C4CF1F9381E060E06CD026
:1000800080E095D066EC7EEF8FEF9FEF07D110E018
:10009000612F70E080E090E01F5F00D1F9CFAD9854
:1000A0008DE0982F9A95F1F7AC98982F9A95F1F7E3
:1000B000AD9A8A95F1F7AC9A089520E03DE0AD98AD
:1000C000932F9A95F1F780FF02C0AC9A01C0AC98CB
:1000D000AD9A932F9A95F1F72F5F283011F08695FE
:1000E000EECFAD98A498AC9A8DE08A95F1F720E018
:1000F0009C9B03C021E0A49AAC988DE0982F9A9520
:10010000F1F7AD9A982F9A95F1F7AD988A95F1F796
:10011000A49A822F0895AC9AAD9A9DE09A95F1F732
:10012000AC98CBDFBCDF0895811188E0683008F01F
:1001300067E0862B809370008068EDDF08959091D2
:100140007000682F6770892F8870EEDF08956091C6
:1001500070006770E9DF089594B3906394BB95B322
:100160009F7C95BBE1DF08950F931F93182F062FF7
:1001700084E4D1DFAC9AAD9A8DE08A95F1F7AC9822
:100180001370812F806C99DF802F97DF88DF1F919C
:100190000F91089580E060E0E7DF81E060E0E4DF58
:1001A00082E060E0E1DF83E060E0DEDF08959091CF
:1001B0006A00882311F0906801C09F7790936A00CD
:1001C00081E060916A00D0DF0895982F862F8053D8
:1001D0008A3018F4E0EDFFEF02C0E0E0F0E0862F97
:1001E00081568A3110F4E9EAFFEF862F81548A3173
:1001F00010F4E9ECFFEF6C32B1F06D3228F46032AC
:10020000C1F06732C1F40CC06D3339F06F3571F055
:100210006D3289F4E7EFFFEF0EC0E8EEFFEF0BC0A1
:10022000EFEFFFEF08C0EBEFFFEF05C0E9ECFFEFEA
:1002300002C0E9E0F0E0E60FF11DEA5DFF4F8491B6
:10024000913011F0682F06C060916A006078682BC9
:1002500060936A00892F88DF0895FF920F931F93A0
:10026000CF93DF938C0184E0F82EC0E0D0E08C2F98
:10027000F801EC0FFD1F6081662319F0CF1518F00F
:1002800001C0FC2E60E0A1DF2196C430D10579F7D2
:10029000DF91CF911F910F91FF9008958F929F92C0
:1002A000BF92CF92DF92EF92FF920F93DF93CF93A3
:1002B000CDB7DEB727970FB6F894DEBF0FBECDBF20
:1002C0006B017C01DE011196EBE6F0E085E0019028
:1002D0000D928150E1F780E1C81687E2D80680E0F0
:1002E000E80680E0F8061CF080E690E04AC099E15C
:1002F000C9169CEFD9069FEFE9069FEFF9061CF49B
:1003000085E690E03EC0F7FC02C0BB240AC0F09432
:10031000E094D094C094C11CD11CE11CF11CBB24FE
:10032000B39403E04E010894811C911C1CC0F4019D
:10033000E00FF11DFF83EE83C701B6012AE030E034
:1003400040E050E030D0605DEE81FF816083C70106
:10035000B6012AE030E040E050E025D0C901DA01E2
:100360006C017D010150C114D104E104F104F9F6DE
:10037000BB2029F0FE01E00FF11D8DE28183CE014B
:1003800001966BDF27960FB6F894DEBF0FBECDBF88
:10039000CF91DF910F91FF90EF90DF90CF90BF90C2
:1003A0009F908F90089597FB092E05260ED057FD3C
:1003B00004D014D00AD0001C38F4509540953095E4
:1003C00021953F4F4F4F5F4F0895F6F790958095D9
:1003D000709561957F4F8F4F9F4F0895A1E21A2E20
:1003E000AA1BBB1BFD010DC0AA1FBB1FEE1FFF1FD9
:1003F000A217B307E407F50720F0A21BB30BE40B29
:10040000F50B661F771F881F991F1A9469F760956F
:100410007095809590959B01AC01BD01CF01089529
:04042000F894FFCF7E
:100424004539393900452D393900FF202020200075
:020434000F00B7
:00000001FF
