:1000000027C042C05EC03FC03EC03DC077C03BC0BD
:100010003AC039C038C037C036C035C034C033C02C
:1000200032C031C030C03F065B4F666D7D077F6FC9
:10003000777C395E79716F74100E763854545C7326
:1000400067506D783E1C1C76665B404802040800D1
:1000500011241FBECFE5D4E0DEBFCDBF10E0A0E687
:10006000B0E0E0EEF5E002C005900D92A837B107D0
:10007000D9F710E0A8E7B0E001C01D92AD37B10795
:10008000E1F7ADD0ABC2BCCF1F920F920FB60F926B
:1000900011248F939F938091650091E0892780932D
:1000A000650080916500882319F090937C0002C060
:1000B00090937B009F918F910F900FBE0F901F9098
:1000C00018951F920F920FB60F9211248F93809163
:1000D0006500882341F0109279001092780081E049
:1000E00080937A0005C081E08093650080937C0056
:1000F0008F910F900FBE0F901F9018951F920F9227
:100100000FB60F9211248F939F9380917800909156
:1001100079000196909379008093780081E0809334
:100120007A009F918F910F900FBE0F901F9018959E
:100130008FEF8FBD8EBD089515BE81B381BB929A9E
:100140008BB780648BBF85B7826085BF81B381BB6D
:10015000939A8BB780688BBF85B7886085BF0895F9
:10016000CF93DF93EC0160347105C1F06134710508
:1001700038F46130710571F06830710549F40CC0D4
:1001800081E06030780761F084E06030780751F0FA
:1001900090E009C091E007C092E005C093E003C081
:1001A00094E001C095E080E88FBD98609EBD9B0102
:1001B00040E050E060E874E88EE190E0D2D1CA01FE
:1001C000B9019E0140E050E0CCD1215030403BBD10
:1001D0002ABD89B7806189BFDF91CF9108951F93B0
:1001E000B89A81E088BB61E0B5D080E690E00CD1A0
:1001F000A3DF78941FEF80917A00882349F0609103
:1002000078007091790080E090E01FD110927A0020
:1002100080917C00882321F01FBD1EBD10927C00C0
:1002200080917B00882339F38AE090E060E470E0FD
:1002300097DF10927B00DFCFAD988DE0982F9A95D5
:10024000F1F7AC98982F9A95F1F7AD9A8A95F1F756
:10025000AC9A089520E03DE0AD98932F9A95F1F780
:1002600080FF02C0AC9A01C0AC98AD9A932F9A95CA
:10027000F1F72F5F283011F08695EECFAD98A49856
:10028000AC9A8DE08A95F1F720E09C9B03C021E0B9
:10029000A49AAC988DE0982F9A95F1F7AD9A982F83
:1002A0009A95F1F7AD988A95F1F7A49A822F08955F
:1002B000AC9AAD9A9DE09A95F1F7AC98CBDFBCDF94
:1002C0000895811188E0683008F067E0862B8093FC
:1002D00070008068EDDF089590917000682F67705E
:1002E000892F8870EEDF0895609170006770E9DFF4
:1002F00008950F931F93182F062F84E4D9DFAC9A2B
:10030000AD9A8DE08A95F1F7AC981370812F806CCF
:10031000A1DF802F9FDF90DF1F910F91089580E074
:1003200060E0E7DF81E060E0E4DF82E060E0E1DF01
:1003300083E060E0DEDF089590917100882311F082
:10034000906801C09F779093710081E06091710087
:10035000D0DF08950F931F93182F062F84B3806367
:1003600084BB85B38F7C85BB80E0E6DF812F602F67
:10037000A8DF1F910F910895982F862F80538A3000
:1003800018F4E0EDFFEF02C0E0E0F0E0862F8156C8
:100390008A3110F4E9EAFFEF862F81548A3110F494
:1003A000E9ECFFEF6C32B1F06D3228F46032C1F04D
:1003B0006732C1F40CC06D3339F06F3571F06D32B6
:1003C00089F4E7EFFFEF0EC0E8EEFFEF0BC0EFEFB1
:1003D000FFEF08C0EBEFFFEF05C0E9ECFFEF02C055
:1003E000E9E0F0E0E60FF11DEA5DFF4F8491913006
:1003F00011F0682F06C0609171006078682B6093DF
:100400007100892F76DF0895FF920F931F93CF938A
:10041000DF938C0184E0F82EC0E0D0E08C2FF8014F
:10042000EC0FFD1F6081662319F0CF1518F001C095
:10043000FC2E60E2A1DF2196C430D10579F7DF916F
:10044000CF911F910F91FF9008959F92AF92BF920D
:10045000CF92DF92EF92FF920F93DF93CF93CDB7BE
:10046000DEB727970FB6F894DEBF0FBECDBF6B0186
:100470007C01DE011196E2E7F0E085E001900D924B
:100480008150E1F780E1C81687E2D80680E0E806EF
:1004900080E0F8061CF086E690E051C099E1C916AC
:1004A0009CEFD9069FEFE9069FEFF9061CF48BE657
:1004B00090E045C0F7FE0BC0F094E094D094C09457
:1004C000C11CD11CE11CF11C9924939406C0C114D9
:1004D000D104E104F10479F1992403E05E01089468
:1004E000A11CB11CF501E00FF11DFF83EE83C701D4
:1004F000B6012AE030E040E050E055D0605DEE818A
:10050000FF816083C701B6012AE030E040E050E09F
:100510004AD0C901DA016C017D010150C114D10436
:10052000E104F104F9F6992041F0A00EB11C8DE22E
:10053000F501808302C080E38C83CE01019664DFE5
:1005400027960FB6F894DEBF0FBECDBFCF91DF91D7
:100550000F91FF90EF90DF90CF90BF90AF909F9062
:100560000895A1E21A2EAA1BBB1BFD010DC0AA1FF4
:10057000BB1FEE1FFF1FA217B307E407F50720F00C
:10058000A21BB30BE40BF50B661F771F881F991F87
:100590001A9469F760957095809590959B01AC01D0
:1005A000BD01CF01089597FB092E05260ED057FDFA
:1005B00004D0D7DF0AD0001C38F450954095309510
:1005C00021953F4F4F4F5F4F0895F6F790958095D7
:1005D000709561957F4F8F4F9F4F0895F894FFCF8F
:1005E000696E697400014539393900452D39390082
:0805F0000FFF20202020000075
:00000001FF
