:1000000027C042C04FC03FC03EC03DC05FC03BC0E4
:100010003AC039C038C037C036C035C034C033C02C
:1000200032C031C030C03F065B4F666D7D077F6FC9
:10003000777C395E79716F74300E763854545C7306
:1000400067506D783E1C1C76665B404802040800D1
:1000500011241FBECFE5D4E0DEBFCDBF10E0A0E687
:10006000B0E0E2EAF5E002C005900D92A237B107D8
:10007000D9F710E0A2E7B0E001C01D92A537B107A3
:10008000E1F791D08CC2BCCF1F920F920FB60F92A6
:10009000112410927300109272000F900FBE0F90F7
:1000A0001F9018951F920F920FB60F9211248F93E5
:1000B0009F938AE090E090937300809372009F91E9
:1000C0008F910F900FBE0F901F9018951F920F9257
:1000D0000FB60F9211248F939F938091720090918D
:1000E00073000196909373008093720081E0809377
:1000F00074009F918F910F900FBE0F901F901895D5
:1001000015BE81B381BB929A8BB780648BBF85B7D4
:10011000826085BF81B381BB939A8BB780688BBFA8
:1001200085B7886085BF0895CF93DF93EC01603475
:100130007105C1F06134710538F46130710571F0F9
:100140006830710549F40CC081E06030780761F0D7
:1001500084E06030780751F090E009C091E007C07A
:1001600092E005C093E003C094E001C095E080E810
:100170008FBD98609EBD9B0140E050E060E874E850
:100180008EE190E0CFD1CA01B9019E0140E050E07C
:10019000C9D1215030403BBD2ABD89B7806189BF9C
:1001A000DF91CF910895B89A81E088BB60E0ADD02F
:1001B000A7DF8AE090E060E470E0B6DF7894809199
:1001C00074008823E1F3609172007091730080E005
:1001D00090E01CD110927400F2CFAD988DE0982F72
:1001E0009A95F1F7AC98982F9A95F1F7AD9A8A9570
:1001F000F1F7AC9A089520E03DE0AD98932F9A95E1
:10020000F1F780FF02C0AC9A01C0AC98AD9A932F71
:100210009A95F1F72F5F283011F08695EECFAD98C3
:10022000A498AC9A8DE08A95F1F720E09C9B03C0DE
:1002300021E0A49AAC988DE0982F9A95F1F7AD9AA9
:10024000982F9A95F1F7AD988A95F1F7A49A822F95
:1002500008951F93AC9AAD9A9DE09A95F1F7AC98EA
:10026000CADF182FBADF812F1F910895811188E00E
:10027000683008F067E0862B809370008068E9DFC3
:10028000089590917000682F6770892F8870EEDF55
:100290000895609170006770E9DF0895FF920F93F1
:1002A0001F93182FF62E84E4D4DFAC9AAD9A8DE01C
:1002B0008A95F1F7AC981370812F806C9CDF082F22
:1002C0008F2D99DF182F89DF812F80231F910F91A8
:1002D000FF90089580E060E0E1DF81E060E0DEDF34
:1002E00082E060E0DBDF83E060E0D8DF089590919A
:1002F0006A00882311F0906801C09F7790936A008C
:1003000081E060916A00CADF08950F931F93182F50
:10031000062F84B3806384BB85B38F7C85BB80E06C
:10032000E6DF812F602FA2DF1F910F910895982F94
:10033000862F80538A3018F4E0EDFFEF02C0E0E032
:10034000F0E0862F81568A3110F4E9EAFFEF862F1C
:1003500081548A3110F4E9ECFFEF6C32B1F06D3268
:1003600028F46032C1F06732C1F40CC06D3339F04B
:100370006F3571F06D3289F4E7EFFFEF0EC0E8EEF4
:10038000FFEF0BC0EFEFFFEF08C0EBEFFFEF05C093
:10039000E9ECFFEF02C0E9E0F0E0E60FF11DEA5DF5
:1003A000FF4F8491913011F0682F06C060916A0070
:1003B0006078682B60936A00892F70DF0895EF9250
:1003C000FF920F931F93CF93DF937C0111E004E022
:1003D000C0E0D0E08C2FF701EC0FFD1F6081662399
:1003E00029F0C01720F4A3DF182304C00C2F60E00D
:1003F0009EDF182F2196C430D10561F7812FDF9140
:10040000CF911F910F91FF90EF9008959F92AF921F
:10041000BF92CF92DF92EF92FF920F93DF93CF9331
:10042000CDB7DEB727970FB6F894DEBF0FBECDBFAE
:100430006B017C01DE011196EBE6F0E085E00190B6
:100440000D928150E1F780E1C81687E2D80680E07E
:10045000E80680E0F8061CF080E690E051C099E1E3
:10046000C9169CEFD9069FEFE9069FEFF9061CF429
:1004700085E690E045C0F7FE0BC0F094E094D09480
:10048000C094C11CD11CE11CF11C9924939406C09A
:10049000C114D104E104F10479F1992403E05E016F
:1004A0000894A11CB11CF501E00FF11DFF83EE8340
:1004B000C701B6012AE030E040E050E055D0605D71
:1004C000EE81FF816083C701B6012AE030E040E0A1
:1004D00050E04AD0C901DA016C017D010150C1141C
:1004E000D104E104F104F9F6992041F0A00EB11C09
:1004F0008DE2F501808302C080E38C83CE010196FA
:100500005EDF27960FB6F894DEBF0FBECDBFCF914A
:10051000DF910F91FF90EF90DF90CF90BF90AF9061
:100520009F900895A1E21A2EAA1BBB1BFD010DC0CE
:10053000AA1FBB1FEE1FFF1FA217B307E407F50793
:1005400020F0A21BB30BE40BF50B661F771F881F6F
:10055000991F1A9469F760957095809590959B0105
:10056000AC01BD01CF01089597FB092E05260ED0E1
:1005700057FD04D0D7DF0AD0001C38F450954095C1
:10058000309521953F4F4F4F5F4F0895F6F7909567
:100590008095709561957F4F8F4F9F4F0895F89488
:0205A000FFCF8B
:1005A2004539393900452D393900FF2020202000F6
:0205B2000F0038
:00000001FF
