:1000000017C029C028C027C026C025C024C023C0CF
:1000100022C021C020C01FC01EC01DC01CC01BC0EC
:100020001AC019C018C03F065B4F666D7D077F6F11
:1000300011241FBECFE5D4E0DEBFCDBF10E0A0E6A7
:10004000B0E0EEEFF1E002C005900D92A236B107EC
:10005000D9F702D0D2C0D4CFCF93DF9381E061E053
:100060007ED080E068E0B4D081E068E0B1D082E08A
:1000700068E0AED083E068E0ABD0C9E1D0E081E0D9
:1000800099D080E197E2FE013197F1F70197D9F716
:1000900080E090D080E197E2FE013197F1F701977F
:1000A000D9F7EDCFAD988DE0982F9A95F1F7AC98F0
:1000B000982F9A95F1F7AD9A8A95F1F7AC9A089531
:1000C00020E03DE0AD98932F9A95F1F780FF02C0B4
:1000D000AC9A01C0AC98AD9A932F9A95F1F72F5F27
:1000E000283011F08695EECFAD98A498AC9A8DE0AB
:1000F0008A95F1F720E09C9B03C021E0A49AAC987C
:100100008DE0982F9A95F1F7AD9A982F9A95F1F77F
:10011000AD988A95F1F7A49A822F0895AC9AAD9A7A
:100120009DE09A95F1F7AC98CBDFBCDF0895811183
:1001300088E0683008F067E0862B80936100806873
:10014000EDDF089590916100682F6770892F8870A6
:10015000EEDF0895609161006770E9DF089594B360
:10016000906394BB95B39F7C95BBE1DF08950F939B
:100170001F93182F062F84E4D1DFAC9AAD9A8DE03F
:100180008A95F1F7AC981370812F806C99DF802FDE
:1001900097DF88DF1F910F91089580E060E0E7DF2F
:1001A00081E060E0E4DF82E060E0E1DF83E060E0E6
:1001B000DEDF089590916000882311F0906801C0FF
:1001C0009F779093600081E060916000D0DF089598
:1001D000982F6A3010F060E005C0E62FF0E0EA5D8D
:1001E000FF4F6491913031F4809160008078682BEA
:0E01F00060936000892FBBDF0895F894FFCF65
:0201FE00FF0FF1
:00000001FF
